{
  "_format": "hh-sol-artifact-1",
  "contractName": "TrustMarket",
  "sourceName": "contracts/TrustMarket.sol",
  "abi": [
    {
      "anonymous": false,
      "inputs": [
        {
          "indexed": true,
          "internalType": "uint256",
          "name": "transactionId",
          "type": "uint256"
        },
        {
          "indexed": true,
          "internalType": "uint256",
          "name": "productId",
          "type": "uint256"
        },
        {
          "indexed": true,
          "internalType": "address",
          "name": "buyer",
          "type": "address"
        },
        {
          "indexed": false,
          "internalType": "address",
          "name": "seller",
          "type": "address"
        },
        {
          "indexed": false,
          "internalType": "uint256",
          "name": "amount",
          "type": "uint256"
        },
        {
          "indexed": false,
          "internalType": "uint256",
          "name": "timestamp",
          "type": "uint256"
        }
      ],
      "name": "ProductPurchased",
      "type": "event"
    },
    {
      "anonymous": false,
      "inputs": [
        {
          "indexed": true,
          "internalType": "uint256",
          "name": "productId",
          "type": "uint256"
        },
        {
          "indexed": true,
          "internalType": "address",
          "name": "reviewer",
          "type": "address"
        },
        {
          "indexed": false,
          "internalType": "uint8",
          "name": "rating",
          "type": "uint8"
        },
        {
          "indexed": false,
          "internalType": "string",
          "name": "comment",
          "type": "string"
        },
        {
          "indexed": false,
          "internalType": "uint256",
          "name": "timestamp",
          "type": "uint256"
        }
      ],
      "name": "ReviewAdded",
      "type": "event"
    },
    {
      "anonymous": false,
      "inputs": [
        {
          "indexed": true,
          "internalType": "address",
          "name": "user",
          "type": "address"
        },
        {
          "indexed": false,
          "internalType": "uint256",
          "name": "newScore",
          "type": "uint256"
        }
      ],
      "name": "TrustScoreUpdated",
      "type": "event"
    },
    {
      "inputs": [],
      "name": "getAllTransactions",
      "outputs": [
        {
          "components": [
            {
              "internalType": "uint256",
              "name": "txId",
              "type": "uint256"
            },
            {
              "internalType": "uint256",
              "name": "productId",
              "type": "uint256"
            },
            {
              "internalType": "address",
              "name": "buyer",
              "type": "address"
            },
            {
              "internalType": "address",
              "name": "seller",
              "type": "address"
            },
            {
              "internalType": "uint256",
              "name": "amount",
              "type": "uint256"
            },
            {
              "internalType": "uint256",
              "name": "timestamp",
              "type": "uint256"
            }
          ],
          "internalType": "struct TrustMarket.Transaction[]",
          "name": "",
          "type": "tuple[]"
        }
      ],
      "stateMutability": "view",
      "type": "function"
    },
    {
      "inputs": [
        {
          "internalType": "uint256",
          "name": "_productId",
          "type": "uint256"
        }
      ],
      "name": "getReviews",
      "outputs": [
        {
          "components": [
            {
              "internalType": "address",
              "name": "reviewer",
              "type": "address"
            },
            {
              "internalType": "uint8",
              "name": "rating",
              "type": "uint8"
            },
            {
              "internalType": "string",
              "name": "comment",
              "type": "string"
            },
            {
              "internalType": "uint256",
              "name": "timestamp",
              "type": "uint256"
            }
          ],
          "internalType": "struct TrustMarket.Review[]",
          "name": "",
          "type": "tuple[]"
        }
      ],
      "stateMutability": "view",
      "type": "function"
    },
    {
      "inputs": [
        {
          "internalType": "address",
          "name": "_user",
          "type": "address"
        }
      ],
      "name": "getTrustScore",
      "outputs": [
        {
          "internalType": "uint256",
          "name": "",
          "type": "uint256"
        }
      ],
      "stateMutability": "view",
      "type": "function"
    },
    {
      "inputs": [
        {
          "internalType": "uint256",
          "name": "",
          "type": "uint256"
        },
        {
          "internalType": "address",
          "name": "",
          "type": "address"
        }
      ],
      "name": "hasBought",
      "outputs": [
        {
          "internalType": "bool",
          "name": "",
          "type": "bool"
        }
      ],
      "stateMutability": "view",
      "type": "function"
    },
    {
      "inputs": [
        {
          "internalType": "uint256",
          "name": "_productId",
          "type": "uint256"
        },
        {
          "internalType": "uint8",
          "name": "_rating",
          "type": "uint8"
        },
        {
          "internalType": "string",
          "name": "_comment",
          "type": "string"
        }
      ],
      "name": "leaveReview",
      "outputs": [],
      "stateMutability": "nonpayable",
      "type": "function"
    },
    {
      "inputs": [
        {
          "internalType": "uint256",
          "name": "",
          "type": "uint256"
        },
        {
          "internalType": "uint256",
          "name": "",
          "type": "uint256"
        }
      ],
      "name": "productReviews",
      "outputs": [
        {
          "internalType": "address",
          "name": "reviewer",
          "type": "address"
        },
        {
          "internalType": "uint8",
          "name": "rating",
          "type": "uint8"
        },
        {
          "internalType": "string",
          "name": "comment",
          "type": "string"
        },
        {
          "internalType": "uint256",
          "name": "timestamp",
          "type": "uint256"
        }
      ],
      "stateMutability": "view",
      "type": "function"
    },
    {
      "inputs": [
        {
          "internalType": "uint256",
          "name": "",
          "type": "uint256"
        },
        {
          "internalType": "uint256",
          "name": "",
          "type": "uint256"
        }
      ],
      "name": "productTransactions",
      "outputs": [
        {
          "internalType": "uint256",
          "name": "txId",
          "type": "uint256"
        },
        {
          "internalType": "uint256",
          "name": "productId",
          "type": "uint256"
        },
        {
          "internalType": "address",
          "name": "buyer",
          "type": "address"
        },
        {
          "internalType": "address",
          "name": "seller",
          "type": "address"
        },
        {
          "internalType": "uint256",
          "name": "amount",
          "type": "uint256"
        },
        {
          "internalType": "uint256",
          "name": "timestamp",
          "type": "uint256"
        }
      ],
      "stateMutability": "view",
      "type": "function"
    },
    {
      "inputs": [
        {
          "internalType": "uint256",
          "name": "_productId",
          "type": "uint256"
        },
        {
          "internalType": "address payable",
          "name": "_seller",
          "type": "address"
        }
      ],
      "name": "purchaseProduct",
      "outputs": [],
      "stateMutability": "payable",
      "type": "function"
    },
    {
      "inputs": [],
      "name": "transactionCount",
      "outputs": [
        {
          "internalType": "uint256",
          "name": "",
          "type": "uint256"
        }
      ],
      "stateMutability": "view",
      "type": "function"
    },
    {
      "inputs": [
        {
          "internalType": "uint256",
          "name": "",
          "type": "uint256"
        }
      ],
      "name": "transactions",
      "outputs": [
        {
          "internalType": "uint256",
          "name": "txId",
          "type": "uint256"
        },
        {
          "internalType": "uint256",
          "name": "productId",
          "type": "uint256"
        },
        {
          "internalType": "address",
          "name": "buyer",
          "type": "address"
        },
        {
          "internalType": "address",
          "name": "seller",
          "type": "address"
        },
        {
          "internalType": "uint256",
          "name": "amount",
          "type": "uint256"
        },
        {
          "internalType": "uint256",
          "name": "timestamp",
          "type": "uint256"
        }
      ],
      "stateMutability": "view",
      "type": "function"
    },
    {
      "inputs": [
        {
          "internalType": "address",
          "name": "",
          "type": "address"
        }
      ],
      "name": "trustScores",
      "outputs": [
        {
          "internalType": "uint256",
          "name": "",
          "type": "uint256"
        }
      ],
      "stateMutability": "view",
      "type": "function"
    }
  ],
  "bytecode": "0x608060405234801561001057600080fd5b5061228b806100206000396000f3fe60806040526004361061009c5760003560e01c80639ace38c2116100645780639ace38c2146101b15780639cb04aef146101f35780639d4a225514610230578063b77bf6001461026d578063f2943dce14610298578063f881f000146102d85761009c565b80630dc9759d146100a157806312df0fc4146100ca578063259132d41461010757806327506f53146101495780635e09eea114610174575b600080fd5b3480156100ad57600080fd5b506100c860048036038101906100c39190611418565b6102f4565b005b3480156100d657600080fd5b506100f160048036038101906100ec91906114e5565b610551565b6040516100fe9190611521565b60405180910390f35b34801561011357600080fd5b5061012e6004803603810190610129919061153c565b610569565b6040516101409695949392919061158b565b60405180910390f35b34801561015557600080fd5b5061015e610602565b60405161016b9190611734565b60405180910390f35b34801561018057600080fd5b5061019b600480360381019061019691906114e5565b6107a5565b6040516101a89190611521565b60405180910390f35b3480156101bd57600080fd5b506101d860048036038101906101d39190611756565b61083a565b6040516101ea9695949392919061158b565b60405180910390f35b3480156101ff57600080fd5b5061021a60048036038101906102159190611783565b6108b6565b60405161022791906117de565b60405180910390f35b34801561023c57600080fd5b5061025760048036038101906102529190611756565b6108e5565b60405161026491906119ac565b60405180910390f35b34801561027957600080fd5b50610282610a66565b60405161028f9190611521565b60405180910390f35b3480156102a457600080fd5b506102bf60048036038101906102ba919061153c565b610a6c565b6040516102cf9493929190611a27565b60405180910390f35b6102f260048036038101906102ed9190611ab1565b610b6e565b005b6004600084815260200190815260200160002060003373ffffffffffffffffffffffffffffffffffffffff1673ffffffffffffffffffffffffffffffffffffffff16815260200190815260200160002060009054906101000a900460ff16610391576040517f08c379a000000000000000000000000000000000000000000000000000000000815260040161038890611b63565b60405180910390fd5b60018260ff16101580156103a9575060058260ff1611155b6103e8576040517f08c379a00000000000000000000000000000000000000000000000000000000081526004016103df90611bcf565b60405180910390fd5b600060405180608001604052803373ffffffffffffffffffffffffffffffffffffffff1681526020018460ff1681526020018381526020014281525090506003600085815260200190815260200160002081908060018154018082558091505060019003906000526020600020906003020160009091909190915060008201518160000160006101000a81548173ffffffffffffffffffffffffffffffffffffffff021916908373ffffffffffffffffffffffffffffffffffffffff16021790555060208201518160000160146101000a81548160ff021916908360ff16021790555060408201518160010190816104e09190611dfb565b506060820151816002015550506104f8336002610fe1565b3373ffffffffffffffffffffffffffffffffffffffff16847f637f4fbfbfb301f9463c86932955cd7830d1765df6d9bbb4080b70f0b2fad49e85854260405161054393929190611ecd565b60405180910390a350505050565b60006020528060005260406000206000915090505481565b6002602052816000526040600020818154811061058557600080fd5b9060005260206000209060060201600091509150508060000154908060010154908060020160009054906101000a900473ffffffffffffffffffffffffffffffffffffffff16908060030160009054906101000a900473ffffffffffffffffffffffffffffffffffffffff16908060040154908060050154905086565b6060600060055467ffffffffffffffff811115610622576106216112ed565b5b60405190808252806020026020018201604052801561065b57816020015b6106486111ed565b8152602001906001900390816106405790505b5090506000600190505b600554811161079d57600160008281526020019081526020016000206040518060c001604052908160008201548152602001600182015481526020016002820160009054906101000a900473ffffffffffffffffffffffffffffffffffffffff1673ffffffffffffffffffffffffffffffffffffffff1673ffffffffffffffffffffffffffffffffffffffff1681526020016003820160009054906101000a900473ffffffffffffffffffffffffffffffffffffffff1673ffffffffffffffffffffffffffffffffffffffff1673ffffffffffffffffffffffffffffffffffffffff168152602001600482015481526020016005820154815250508260018361076e9190611f3a565b8151811061077f5761077e611f6e565b5b6020026020010181905250808061079590611f9d565b915050610665565b508091505090565b6000806000808473ffffffffffffffffffffffffffffffffffffffff1673ffffffffffffffffffffffffffffffffffffffff1681526020019081526020016000205414610830576000808373ffffffffffffffffffffffffffffffffffffffff1673ffffffffffffffffffffffffffffffffffffffff16815260200190815260200160002054610833565b60325b9050919050565b60016020528060005260406000206000915090508060000154908060010154908060020160009054906101000a900473ffffffffffffffffffffffffffffffffffffffff16908060030160009054906101000a900473ffffffffffffffffffffffffffffffffffffffff16908060040154908060050154905086565b60046020528160005260406000206020528060005260406000206000915091509054906101000a900460ff1681565b606060036000838152602001908152602001600020805480602002602001604051908101604052809291908181526020016000905b82821015610a5b57838290600052602060002090600302016040518060800160405290816000820160009054906101000a900473ffffffffffffffffffffffffffffffffffffffff1673ffffffffffffffffffffffffffffffffffffffff1673ffffffffffffffffffffffffffffffffffffffff1681526020016000820160149054906101000a900460ff1660ff1660ff1681526020016001820180546109c090611c1e565b80601f01602080910402602001604051908101604052809291908181526020018280546109ec90611c1e565b8015610a395780601f10610a0e57610100808354040283529160200191610a39565b820191906000526020600020905b815481529060010190602001808311610a1c57829003601f168201915b505050505081526020016002820154815250508152602001906001019061091a565b505050509050919050565b60055481565b60036020528160005260406000208181548110610a8857600080fd5b9060005260206000209060030201600091509150508060000160009054906101000a900473ffffffffffffffffffffffffffffffffffffffff16908060000160149054906101000a900460ff1690806001018054610ae590611c1e565b80601f0160208091040260200160405190810160405280929190818152602001828054610b1190611c1e565b8015610b5e5780601f10610b3357610100808354040283529160200191610b5e565b820191906000526020600020905b815481529060010190602001808311610b4157829003601f168201915b5050505050908060020154905084565b60003411610bb1576040517f08c379a0000000000000000000000000000000000000000000000000000000008152600401610ba890612031565b60405180910390fd5b8073ffffffffffffffffffffffffffffffffffffffff163373ffffffffffffffffffffffffffffffffffffffff1603610c1f576040517f08c379a0000000000000000000000000000000000000000000000000000000008152600401610c16906120c3565b60405180910390fd5b60056000815480929190610c3290611f9d565b919050555060006040518060c0016040528060055481526020018481526020013373ffffffffffffffffffffffffffffffffffffffff1681526020018373ffffffffffffffffffffffffffffffffffffffff16815260200134815260200142815250905080600160006005548152602001908152602001600020600082015181600001556020820151816001015560408201518160020160006101000a81548173ffffffffffffffffffffffffffffffffffffffff021916908373ffffffffffffffffffffffffffffffffffffffff16021790555060608201518160030160006101000a81548173ffffffffffffffffffffffffffffffffffffffff021916908373ffffffffffffffffffffffffffffffffffffffff1602179055506080820151816004015560a0820151816005015590505060026000848152602001908152602001600020819080600181540180825580915050600190039060005260206000209060060201600090919091909150600082015181600001556020820151816001015560408201518160020160006101000a81548173ffffffffffffffffffffffffffffffffffffffff021916908373ffffffffffffffffffffffffffffffffffffffff16021790555060608201518160030160006101000a81548173ffffffffffffffffffffffffffffffffffffffff021916908373ffffffffffffffffffffffffffffffffffffffff1602179055506080820151816004015560a08201518160050155505060016004600085815260200190815260200160002060003373ffffffffffffffffffffffffffffffffffffffff1673ffffffffffffffffffffffffffffffffffffffff16815260200190815260200160002060006101000a81548160ff02191690831515021790555060008273ffffffffffffffffffffffffffffffffffffffff1634604051610ee990612114565b60006040518083038185875af1925050503d8060008114610f26576040519150601f19603f3d011682016040523d82523d6000602084013e610f2b565b606091505b5050905080610f6f576040517f08c379a0000000000000000000000000000000000000000000000000000000008152600401610f6690612175565b60405180910390fd5b610f7a336005610fe1565b610f85836005610fe1565b3373ffffffffffffffffffffffffffffffffffffffff16846005547fe922c7e0e51d4898df5c35ce330fa87a26d5a4dee73c44676a135d464565756e863442604051610fd3939291906121ea565b60405180910390a450505050565b60008060008473ffffffffffffffffffffffffffffffffffffffff1673ffffffffffffffffffffffffffffffffffffffff168152602001908152602001600020540361107b578060326110349190612221565b6000808473ffffffffffffffffffffffffffffffffffffffff1673ffffffffffffffffffffffffffffffffffffffff168152602001908152602001600020819055506110d1565b806000808473ffffffffffffffffffffffffffffffffffffffff1673ffffffffffffffffffffffffffffffffffffffff16815260200190815260200160002060008282546110c99190612221565b925050819055505b60646000808473ffffffffffffffffffffffffffffffffffffffff1673ffffffffffffffffffffffffffffffffffffffff16815260200190815260200160002054111561115d5760646000808473ffffffffffffffffffffffffffffffffffffffff1673ffffffffffffffffffffffffffffffffffffffff168152602001908152602001600020819055505b8173ffffffffffffffffffffffffffffffffffffffff167f16bf5e9c27e8fb3837dca08521258eaf9f8e21bb809d3dd7a1a4a00093c99a446000808573ffffffffffffffffffffffffffffffffffffffff1673ffffffffffffffffffffffffffffffffffffffff168152602001908152602001600020546040516111e19190611521565b60405180910390a25050565b6040518060c001604052806000815260200160008152602001600073ffffffffffffffffffffffffffffffffffffffff168152602001600073ffffffffffffffffffffffffffffffffffffffff16815260200160008152602001600081525090565b6000604051905090565b600080fd5b600080fd5b6000819050919050565b61127681611263565b811461128157600080fd5b50565b6000813590506112938161126d565b92915050565b600060ff82169050919050565b6112af81611299565b81146112ba57600080fd5b50565b6000813590506112cc816112a6565b92915050565b600080fd5b600080fd5b6000601f19601f8301169050919050565b7f4e487b7100000000000000000000000000000000000000000000000000000000600052604160045260246000fd5b611325826112dc565b810181811067ffffffffffffffff82111715611344576113436112ed565b5b80604052505050565b600061135761124f565b9050611363828261131c565b919050565b600067ffffffffffffffff821115611383576113826112ed565b5b61138c826112dc565b9050602081019050919050565b82818337600083830152505050565b60006113bb6113b684611368565b61134d565b9050828152602081018484840111156113d7576113d66112d7565b5b6113e2848285611399565b509392505050565b600082601f8301126113ff576113fe6112d2565b5b813561140f8482602086016113a8565b91505092915050565b60008060006060848603121561143157611430611259565b5b600061143f86828701611284565b9350506020611450868287016112bd565b925050604084013567ffffffffffffffff8111156114715761147061125e565b5b61147d868287016113ea565b9150509250925092565b600073ffffffffffffffffffffffffffffffffffffffff82169050919050565b60006114b282611487565b9050919050565b6114c2816114a7565b81146114cd57600080fd5b50565b6000813590506114df816114b9565b92915050565b6000602082840312156114fb576114fa611259565b5b6000611509848285016114d0565b91505092915050565b61151b81611263565b82525050565b60006020820190506115366000830184611512565b92915050565b6000806040838503121561155357611552611259565b5b600061156185828601611284565b925050602061157285828601611284565b9150509250929050565b611585816114a7565b82525050565b600060c0820190506115a06000830189611512565b6115ad6020830188611512565b6115ba604083018761157c565b6115c7606083018661157c565b6115d46080830185611512565b6115e160a0830184611512565b979650505050505050565b600081519050919050565b600082825260208201905092915050565b6000819050602082019050919050565b61162181611263565b82525050565b611630816114a7565b82525050565b60c08201600082015161164c6000850182611618565b50602082015161165f6020850182611618565b5060408201516116726040850182611627565b5060608201516116856060850182611627565b5060808201516116986080850182611618565b5060a08201516116ab60a0850182611618565b50505050565b60006116bd8383611636565b60c08301905092915050565b6000602082019050919050565b60006116e1826115ec565b6116eb81856115f7565b93506116f683611608565b8060005b8381101561172757815161170e88826116b1565b9750611719836116c9565b9250506001810190506116fa565b5085935050505092915050565b6000602082019050818103600083015261174e81846116d6565b905092915050565b60006020828403121561176c5761176b611259565b5b600061177a84828501611284565b91505092915050565b6000806040838503121561179a57611799611259565b5b60006117a885828601611284565b92505060206117b9858286016114d0565b9150509250929050565b60008115159050919050565b6117d8816117c3565b82525050565b60006020820190506117f360008301846117cf565b92915050565b600081519050919050565b600082825260208201905092915050565b6000819050602082019050919050565b61182e81611299565b82525050565b600081519050919050565b600082825260208201905092915050565b60005b8381101561186e578082015181840152602081019050611853565b60008484015250505050565b600061188582611834565b61188f818561183f565b935061189f818560208601611850565b6118a8816112dc565b840191505092915050565b60006080830160008301516118cb6000860182611627565b5060208301516118de6020860182611825565b50604083015184820360408601526118f6828261187a565b915050606083015161190b6060860182611618565b508091505092915050565b600061192283836118b3565b905092915050565b6000602082019050919050565b6000611942826117f9565b61194c8185611804565b93508360208202850161195e85611815565b8060005b8581101561199a578484038952815161197b8582611916565b94506119868361192a565b925060208a01995050600181019050611962565b50829750879550505050505092915050565b600060208201905081810360008301526119c68184611937565b905092915050565b6119d781611299565b82525050565b600082825260208201905092915050565b60006119f982611834565b611a0381856119dd565b9350611a13818560208601611850565b611a1c816112dc565b840191505092915050565b6000608082019050611a3c600083018761157c565b611a4960208301866119ce565b8181036040830152611a5b81856119ee565b9050611a6a6060830184611512565b95945050505050565b6000611a7e82611487565b9050919050565b611a8e81611a73565b8114611a9957600080fd5b50565b600081359050611aab81611a85565b92915050565b60008060408385031215611ac857611ac7611259565b5b6000611ad685828601611284565b9250506020611ae785828601611a9c565b9150509250929050565b7f4f6e6c79207665726966696564206275796572732063616e206c65617665206160008201527f2072657669657700000000000000000000000000000000000000000000000000602082015250565b6000611b4d6027836119dd565b9150611b5882611af1565b604082019050919050565b60006020820190508181036000830152611b7c81611b40565b9050919050565b7f526174696e67206d757374206265206265747765656e203120616e6420350000600082015250565b6000611bb9601e836119dd565b9150611bc482611b83565b602082019050919050565b60006020820190508181036000830152611be881611bac565b9050919050565b7f4e487b7100000000000000000000000000000000000000000000000000000000600052602260045260246000fd5b60006002820490506001821680611c3657607f821691505b602082108103611c4957611c48611bef565b5b50919050565b60008190508160005260206000209050919050565b60006020601f8301049050919050565b600082821b905092915050565b600060088302611cb17fffffffffffffffffffffffffffffffffffffffffffffffffffffffffffffffff82611c74565b611cbb8683611c74565b95508019841693508086168417925050509392505050565b6000819050919050565b6000611cf8611cf3611cee84611263565b611cd3565b611263565b9050919050565b6000819050919050565b611d1283611cdd565b611d26611d1e82611cff565b848454611c81565b825550505050565b600090565b611d3b611d2e565b611d46818484611d09565b505050565b5b81811015611d6a57611d5f600082611d33565b600181019050611d4c565b5050565b601f821115611daf57611d8081611c4f565b611d8984611c64565b81016020851015611d98578190505b611dac611da485611c64565b830182611d4b565b50505b505050565b600082821c905092915050565b6000611dd260001984600802611db4565b1980831691505092915050565b6000611deb8383611dc1565b9150826002028217905092915050565b611e0482611834565b67ffffffffffffffff811115611e1d57611e1c6112ed565b5b611e278254611c1e565b611e32828285611d6e565b600060209050601f831160018114611e655760008415611e53578287015190505b611e5d8582611ddf565b865550611ec5565b601f198416611e7386611c4f565b60005b82811015611e9b57848901518255600182019150602085019450602081019050611e76565b86831015611eb85784890151611eb4601f891682611dc1565b8355505b6001600288020188555050505b505050505050565b6000606082019050611ee260008301866119ce565b8181036020830152611ef481856119ee565b9050611f036040830184611512565b949350505050565b7f4e487b7100000000000000000000000000000000000000000000000000000000600052601160045260246000fd5b6000611f4582611263565b9150611f5083611263565b9250828203905081811115611f6857611f67611f0b565b5b92915050565b7f4e487b7100000000000000000000000000000000000000000000000000000000600052603260045260246000fd5b6000611fa882611263565b91507fffffffffffffffffffffffffffffffffffffffffffffffffffffffffffffffff8203611fda57611fd9611f0b565b5b600182019050919050565b7f416d6f756e74206d7573742062652067726561746572207468616e2030000000600082015250565b600061201b601d836119dd565b915061202682611fe5565b602082019050919050565b6000602082019050818103600083015261204a8161200e565b9050919050565b7f53656c6c65722063616e6e6f7420627579207468656972206f776e2070726f6460008201527f7563740000000000000000000000000000000000000000000000000000000000602082015250565b60006120ad6023836119dd565b91506120b882612051565b604082019050919050565b600060208201905081810360008301526120dc816120a0565b9050919050565b600081905092915050565b50565b60006120fe6000836120e3565b9150612109826120ee565b600082019050919050565b600061211f826120f1565b9150819050919050565b7f5472616e73666572206661696c65640000000000000000000000000000000000600082015250565b600061215f600f836119dd565b915061216a82612129565b602082019050919050565b6000602082019050818103600083015261218e81612152565b9050919050565b60006121b06121ab6121a684611487565b611cd3565b611487565b9050919050565b60006121c282612195565b9050919050565b60006121d4826121b7565b9050919050565b6121e4816121c9565b82525050565b60006060820190506121ff60008301866121db565b61220c6020830185611512565b6122196040830184611512565b949350505050565b600061222c82611263565b915061223783611263565b925082820190508082111561224f5761224e611f0b565b5b9291505056fea2646970667358221220737eb73041d01ba5a6514858bd3bffb1c5c031d8504e35cd503ed25d7962e6a964736f6c63430008130033",
  "linkReferences": {},
  "deployedLinkReferences": {}
}